:020000040800F2
:10000000580700208901000831090008FF05000891
:10001000A10800085D04000889160008000000001F
:100020000000000000000000000000000D0D0008AE
:100030006104000800000000590B0008890F000847
:10004000A3010008A3010008A3010008A301000800
:10005000A3010008A3010008A3010008A3010008F0
:10006000A3010008A3010008A3010008A3010008E0
:10007000A3010008A3010008A3010008A3010008D0
:10008000A3010008A3010008A3010008A3010008C0
:10009000A3010008A3010008A3010008A3010008B0
:1000A000A3010008A3010008A3010008A3010008A0
:1000B000A301000805100008A3010008A30100081F
:1000C000A3010008A3010008A3010008A301000880
:1000D000A3010008A30100087D1300082D140008E7
:1000E000A3010008A3010008A301000800F002F822
:1000F00000F03AF80AA090E8000C82448344AAF188
:100100000107DA4501D100F02FF8AFF2090EBAE885
:100110000F0013F0010F18BFFB1A43F0010318473B
:10012000283E0000483E0000103A24BF78C878C13D
:10013000FAD8520724BF30C830C144BF04680C60ED
:10014000704700000023002400250026103A28BF35
:1001500078C1FBD8520728BF30C148BF0B60704739
:100160001FB51FBD10B510BD00F046F81146FFF7D2
:10017000F7FF01F0E5FF00F064F803B4FFF7F2FFCA
:1001800003BC01F003FE000009488047094800470E
:10019000FEE7FEE7FEE7FEE7FEE7FEE7FEE7FEE737
:1001A000FEE7FEE704480549054A064B7047000094
:1001B0008D0F0008ED0000085801002058070020AE
:1001C000580300205803002070477047704770475D
:1001D000704710B500F008F8006810BD10B504466F
:1001E00000F002F8046010BD00487047F8000020DD
:1001F00000487047F80000207546FFF7F9FFAE464B
:1002000005006946534620F00700854618B020B522
:10021000FFF7C8FFBDE820404FF000064FF0000791
:100220004FF000084FF0000B21F00701AC46ACE89E
:10023000C009ACE8C009ACE8C009ACE8C0098D460B
:10024000704710B50446AFF300802046BDE810406B
:10025000FFF793BF08B50121082000F08FFCC020F4
:10026000ADF8000010208DF8030003208DF8020087
:100270006946024800F038F908BD0000000C014052
:1002800030B500F063FA6C2000F032FA00F090FA1A
:100290000C2000F02DFA00F08BFA00F057FA6D20D8
:1002A00000F026FA00F084FA012000F0DFF904469D
:1002B000002000F0DBF9054600F062FA05EB0420AF
:1002C00080B230BD2DE9F0470446244884600246E0
:1002D0009168106A03F0B2F9204908620A46D168B1
:1002E000906803F0B3FC81461C488169484603F0DE
:1002F000A5FB0746194A116A506903F09FFB814626
:10030000164A9168106903F099FB8246494603F04A
:1003100095F98046394603F091F9064603F0F2FA62
:1003200005460E49086A0E4903F054FC01D20C48F8
:1003300009E00A49086A0B4903F04CFB01D209485D
:1003400001E00648006A0549086208468068C860FE
:10035000284603F013FBBDE8F0870000B000002042
:100360000000FA440000FAC42DE9FF5F8246DFF87E
:10037000D8B04FF08041504603F0CEF90390039877
:1003800003F030F980460022304B02F02BFB06468A
:100390002F4A304B02F014FD044602F035FA029069
:1003A0002D480299006803F049F901902A48029902
:1003B000006803F04BFC009001F04CFE04460099ED
:1003C00003F008FC0ED201F045FE0446019903F04B
:1003D00001FB07D201F08EFC04462146002002F00A
:1003E00011F82FE001F036FE0446009903F0F2FA0E
:1003F00010D201F07FFC064601F02CFE0746009962
:1004000003F019FC0546594603F018FB0446314633
:1004100001F0F8FF01F01EFE0446019903F0DAFB3B
:1004200010D201F067FC064601F014FE0746019960
:1004300003F001FC0546594603F000FB0446314633
:1004400001F0E0FFBDE8FF9F0000A0400080764083
:10045000EA2E4454FB2119408000002000BFFEE733
:100460007047000070B505460C46FFF7F3FE1148D3
:100470000560114804601149114801F0C3FF01F003
:10048000D5FC4FF47A7001F0F3FC4FF47A7001F070
:10049000EFFC4FF47A7001F0EBFC01F02BFC094902
:1004A00008600649002001F0ADFF01F033FE064967
:1004B000086070BD6400002068000020E4CB964016
:1004C0000000404080000020A800002010B5044635
:1004D0000448046000F0C0FA00F02BFA00F08EFA35
:1004E00010BD0000740000202DE9F04102460025F7
:1004F0000026002000230024002791F803C00CF000
:100500000F0591F803C00CF0100CBCF1000F03D0E4
:1005100091F802C04CEA050591F800C0BCF1000F4B
:1005200031D0146800202BE04FF0010C0CFA00F3DE
:10053000B1F800C00CEA03069E4220D183004FF0C0
:100540000F0C0CFA03F7BC4305FA03FC4CEA040455
:1005500091F803C0BCF1280F06D14FF0010C0CFA42
:1005600000FCC2F814C00AE091F803C0BCF1480FC7
:1005700005D14FF0010C0CFA00FCC2F810C0401C71
:100580000828D1D31460B1F800C0BCF1FF0F34DDEE
:10059000546800202EE000F1080C4FF0010808FA22
:1005A0000CF3B1F800C00CEA03069E4221D183008F
:1005B0004FF00F0C0CFA03F7BC4305FA03FC4CEAAE
:1005C000040491F803C0BCF1280F05D100F1080C18
:1005D00008FA0CF8C2F8148091F803C0BCF1480F77
:1005E00007D100F1080C4FF0010808FA0CF8C2F826
:1005F0001080401C0828CED35460BDE8F08100BFB5
:10060000FEE7000000B50020094908600949C1F86B
:100610009C01142001F052FC0120054908601420BF
:1006200001F04CFC00200349C1F8980100BD000016
:10063000988121420080214200B5002009490860CC
:1006400001200949C1F89C01142001F037FC012068
:1006500004490860142001F031FC00200249C1F86F
:10066000980100BD988121420080214230B50446A6
:1006700000231C48006820F070401A4908600846B2
:10068000006840F000400860002516E00020164990
:100690000860142001F012FC01201449C1F89801EF
:1006A0005806030E10487C38006808B1581CC3B2C5
:1006B0000A2001F003FC681CC5B2082DE6DB0948DE
:1006C000006820F07040074908600846006840F064
:1006D0004050086014B9FFF7AFFF01E0FFF792FF49
:1006E000184630BD000C0140988121420080214213
:1006F00010B5034600201349086000241EE003F0F3
:10070000800020B101200F49091D086003E000208E
:100710000C49091D08605806030E142001F0CEFB99
:10072000012008490860142001F0C8FB0020064998
:10073000C1F89801142001F0C1FB641C082CDED321
:1007400010BD0000988121420080214200B50120A7
:10075000094908600949C1F89801142001F0AEFB6D
:10076000002005490860142001F0A8FB002003497F
:10077000C1F8980100BD00009C8121420080214207
:1007800000B50020084908600849C1F89C01142000
:1007900001F094FB0120044908600449C1F89C0160
:1007A000142001F08BFB00BD988121420080214282
:1007B00000B500231F48006820F070401D49086004
:1007C0000846006840F00040086001201A490860AF
:1007D0001A49C1F898010A2001F070FB13E0581C77
:1007E000C0B20346FA280EDD1248006820F07040BF
:1007F000104908600846006840F040500860FFF764
:10080000BFFF012000BD0C48803800680028E6D1F9
:100810000848006820F070400649086008460068F3
:1008200040F04050086000200349091F086000BFE5
:10083000E8E70000000C01409C8121420080214239
:100840002DE9FC5F8346584602F0CCFE07460F4A6E
:100850000F4B02F0B5FA81468A460E48006802F056
:10086000C1FE07460C4A0D4B02F0AAFA4A4653460F
:10087000CDE9000101F0FAFF054601F0C5FF04468D
:10088000044804602046BDE8FC9F00009A999999AD
:100890009999B93F6C000020CDCCCCCCCCCCEC3FAE
:1008A00000BFFEE710B512491248006803F092F944
:1008B00002D20F480F4908600F490E48006803F044
:1008C00089F802D20C480B49086009490B480068B6
:1008D00003F080F902D20648084908600649074833
:1008E000006803F077F802D203480449086010BD9D
:1008F0000000C040400000200000C0C044000020B4
:1009000070B5084840780849087006488478642023
:1009100004FB00F50348C678A81903F02FF8034933
:10092000086070BD2C000020320000203400002040
:10093000704708B54FF4A06000F056F826208DF8F7
:10094000000001208DF803008DF8010002208DF8D1
:100950000200684600F010F827208DF80000012002
:100960008DF8030000208DF801008DF80200684624
:1009700000F002F808BD000070B5002100230F222E
:10098000C47804B3154C246804F4E064C4F5E0644E
:10099000210AC1F10403CA40447804FA03F18478BF
:1009A0001440214309010E4C0678A155047804F047
:1009B0001F050124AC4005786D11AD0005F1E0255F
:1009C000C5F8004109E0047804F01F050124AC409B
:1009D000044D0678761145F8264070BD0CED00E018
:1009E00000E400E080E100E002490143024A1160B6
:1009F000704700000000FA050CED00E000200E49F1
:100A0000086048608860C860C86108620B48086177
:100A10000B4848610B48886100200B49086048601A
:100A20008860C860C8610862084808610848486171
:100A30000848886170470000B0000020C520303DA4
:100A40006F12033AAE47613ED4000020AE47E13D4D
:100A50000AD7A33B17B7513A00B589B0012104204A
:100A600000F08CF818208DF823004FF4E060ADF80A
:100A7000200003208DF8220008A92648FFF734FD46
:100A8000254800F00CFB0121C80200F077F8002097
:100A9000ADF81A00ADF8160040F65F10ADF818007A
:100AA0000020ADF8140005A91B4800F015FC6020DB
:100AB000ADF804000020ADF80C000120ADF80600F0
:100AC0000020ADF80A0001A9134800F0EFFA01A9CF
:100AD000114800F041FB01A90F4800F09DFB0121E6
:100AE0000D4800F0BCFA08210B4800F02BFB082150
:100AF000094800F083FB0821074800F0DDFB0121D5
:100B0000054800F091FA0121034800F09CFA09B071
:100B100000BD000000080140002C014010B5044653
:100B20002146024800F0D1FB10BD0000002C01401E
:100B300010B504462146024800F0C9FB10BD000074
:100B4000002C014010B504462146024800F0C1FBCC
:100B500010BD0000002C01407047000029B1064A7A
:100B6000D2690243044BDA6104E0034AD26982434A
:100B7000014BDA61704700000010024029B1064ABB
:100B800092690243044B9A6104E0034A92698243EA
:100B9000014B9A61704700000010024030B50021FF
:100BA0000022002400232D4D6D6805F00C0121B1B9
:100BB000042905D0082923D105E0294D056022E04C
:100BC000274D05601FE0254D6D6805F47012234D1B
:100BD0006D6805F48034022505EB92421CB9214D65
:100BE000554305600BE01D4D6D6805F400351DB1E2
:100BF0001C4D5543056002E0194D5543056002E068
:100C0000174D056000BF00BF144D6D6805F0F00181
:100C10000909154D6B5C0568DD4045600F4D6D6839
:100C200005F4E061090A104D6B5C4568DD408560A4
:100C30000A4D6D6805F46051C90A0B4D6B5C45683F
:100C4000DD40C560054D6D6805F44041890B074DD9
:100C50006B5CC568B5FBF3F5056130BD0010024063
:100C600000127A0000093D0014000020240000203A
:100C70002DE9F14F86B0069802F0B4FC80461F4A79
:100C80001F4B02F09DF8064600221E4B01F0AAFE03
:100C9000044601F0B9FD82461B480590504602F01B
:100CA000A1FC04460D4601F0D5F95146019002F031
:100CB00033FD834602F096FC064601F089FA22468F
:100CC0002B46CDE9020102F07BF8804601F09CFD45
:100CD000049001F00FF8064601F0BCF907460499AC
:100CE00002F0A9FF0546059902F0A8FE0446314628
:100CF00001F088FB07B0BDE8F08F0000EA2E4454F5
:100D0000FB210940008066400000A040704710B5FC
:100D100000F002F810BD00000CB50020019000901A
:100D20003348006840F480303149086000BF3048E3
:100D3000006800F4003000900198401C0190009879
:100D400018B90198B0F5A06FF1D12948006800F4F6
:100D5000003010B10120009001E0002000900098C8
:100D6000012843D12348006840F010002149086061
:100D70000846006820F0030008600846006840F05C
:100D8000020008601A4840681949486008464068EF
:100D900048600846406840F4806048600846406803
:100DA00020F47C1048600846406840F4E810486031
:100DB0000846006840F08070086000BF0C4800687A
:100DC00000F000700028F9D00948406820F00300C6
:100DD000074948600846406840F00200486000BF8C
:100DE0000348406800F00C000828F9D10CBD000051
:100DF00000100240002002402DE9FC5F044601F093
:100E000029F9184908601848006802F0B7FD0090F9
:100E100014480168009802F011FE8346214602F052
:100E20000AFF8246114902F009FE814602F0DAFB10
:100E300007460F4A0F4B01F0D5FD054601F0E4FCD3
:100E40000190FFF73FFA0C490860FFF72BFD00F017
:100E500051FF054629460848006801F0D3FABDE86D
:100E6000FC9F0000A4000020680000200000344324
:100E7000EA2E4454FB2109404000002070B504468E
:100E800001F048F90B49086008460168204602F065
:100E9000DDFE054600F012F807490860FFF702FD85
:100EA00000F028FF054629460348006801F0AAFA29
:100EB00070BD0000A8000020440000202DE9F0478C
:100EC00004462448846002469168106A02F0B6FB2A
:100ED000204908620A46D168906802F0B7FE814650
:100EE0001C488169484602F0A9FD0746194A116A63
:100EF000506902F0A3FD8146164A9168106902F01C
:100F00009DFD8246494602F099FB8046394602F033
:100F100095FB064602F0F6FC05460E49086A0E49A6
:100F200002F058FE01D20C4809E00A49086A0B4950
:100F300002F050FD01D2094801E00648006A054967
:100F4000086208468068C860284602F017FDBDE8C0
:100F5000F0870000D400002000803B4500803BC5A6
:100F6000042808D14FF0E021096941F004014FF055
:100F7000E022116107E04FF0E021096921F004014E
:100F80004FF0E022116170477047000010B5134820
:100F9000006840F0010011490860084640681049A7
:100FA00008400E494860084600680E4908400B4951
:100FB00008600846006820F4802008600846406801
:100FC00020F4FE0048604FF41F008860FFF79FFE8A
:100FD0004FF000600449086010BD0000001002409E
:100FE0000000FFF8FFFFF6FE08ED00E004484FF0B8
:100FF000E0214861002088610120086170470000FD
:10100000FEFFFF0010B50121054800F037F8012868
:1010100005D1044908700121014800F011F810BD04
:1010200000040040AC00002021B1028842F08002A0
:10103000028004E002884FF67F731A4002807047F6
:10104000CA430282704721B1028842F00102028045
:1010500004E002884FF6FE731A400280704731B1F7
:10106000B0F8442042F40042A0F8442005E0B0F873
:101070004420C2F30E02A0F84420704730B5024667
:10108000002000230024158A05EA0103958905EA5A
:10109000010413B10CB1012000E0002030BD018932
:1010A0004FF6F872114001817047000070B50024BE
:1010B00000220023058C4FF6FE7635400584028C15
:1010C0008388048B4FF68F752C40B51E2C400D88FD
:1010D0002C43751E2A400D892A434D882A43144DFE
:1010E000A8420BD0134DA84208D0134DA84205D0FA
:1010F000124DA84202D0124DA84213D14FF6F775F7
:101100002A404D892A434FF6FB752A408D882A4391
:101110004FF6FF652B404FF6FF552B408D892B4333
:10112000CD892B4383800483CD888586028470BD5E
:10113000002C0140003401400040014000440140C7
:10114000004801400A460021018B4FF6F773194011
:10115000114301837047000070B500240022002372
:10116000058C4FF6EF7635400584028C8388048B1E
:1011700048F6FF752C404FF6FF452C400D884FF682
:10118000FF7606EA05252C434FF6DF752A400D89C8
:1011900006EA05152A434D8806EA05152A43154D2A
:1011A000A84202D0144DA8421DD14FF67F752A40A7
:1011B0004D894FF6FF7606EA05152A434FF6BF75AF
:1011C0002A408D8806EA05152A434FF6FF352B4045
:1011D0004FF2FF752B408D8906EA85052B43CD899B
:1011E00006EA85052B4383800483CD880587028426
:1011F00070BD0000002C0140003401400A4600216F
:10120000018B4FF2FF7319404FF6FF7303EA02237D
:10121000194301837047000070B5002400220023A9
:10122000058C4FF6FF6635400584028C8388848BDD
:101230004FF68F752C404FF6FC752C400D882C43D3
:101240004FF6FF552A400D894FF6FF7606EA052531
:101250002A434D8806EA05252A43154DA84202D0A7
:10126000144DA8421DD14FF2FF752A404D894FF60B
:10127000FF7606EA05252A434FF6FF352A408D887A
:1012800006EA05252A434EF6FF752B404DF6FF75FD
:101290002B408D8906EA05152B43CD8906EA0515F5
:1012A0002B4383808483CD888587028470BD0000B2
:1012B000002C0140003401400A460021818B4FF68A
:1012C000F773194011438183704781867047018706
:1012D0007047818770470000002202881D4B9842AA
:1012E0000ED01D4B98420BD0B0F1804F08D01B4B55
:1012F000984205D01A4B984202D01A4B984204D11A
:101300004FF68F731A404B881A43174B984207D0F9
:10131000164B984204D04FF6FF431A40CB881A432D
:1013200002808B8883850B8803850A4B98420BD0FB
:10133000094B984208D00E4B984205D00D4B98426D
:1013400002D00D4B984201D10B7A03860123838290
:1013500070470000002C01400034014000040040B0
:1013600000080040000C0040001000400014004045
:1013700000400140004401400048014010B540F2E7
:101380002551254800F096F8012844D1224800F064
:101390004DF92249087001202149087040F2255179
:1013A0001D4800F05FF81D480078AA280DD10020E4
:1013B0001C490870194801781A4802780078401CC6
:1013C000184B18701848815425E01648007810B35F
:1013D00012480178134802780078401C114B1870AD
:1013E000114881540D48007855280DD118460078D1
:1013F000052805D1FFF784FA00200A4908700AE0A1
:1014000000200849087006E006480078052802DB3D
:1014100000200449087010BD00440040380000203E
:101420003A000020310000202C00002010B540F2CE
:101430002551094800F03EF801280CD1064800F07B
:10144000F5F80649087001200549087040F2255159
:10145000014800F007F810BD0048004039000020A6
:101460003A00002010B50022002340F66A14A14281
:1014700000D100BF0A1201249440A3B2DC430480CF
:1014800010BD21B1828942F40052828104E0828938
:101490004DF6FF731A408281704702460020B1F575
:1014A000007F00D100BF13880B400BB1012000E08A
:1014B0000020704770B5024600240023002500205C
:1014C00040F66A16B14200D100BFC1F3421501F0E7
:1014D0001F03012606FA03F3012D02D1968933403A
:1014E00006E0022D02D1168A334001E0968A33408D
:1014F0000C12012606FA04F41688344013B10CB11C
:10150000012000E0002070BDF0B503460024002655
:101510000025002040F66A17B94200D100BF1846E6
:10152000C1F3421401F01F06012707FA06F5012C4A
:1015300001D10C3004E0022C01D1103000E0143055
:101540001AB107682F43076002E00768AF430760DE
:10155000F0BD00002DE9F04786B005460E46002498
:10156000A24600BFA1460027B08900B100BF2F46A8
:101570002C8A4CF6FF700440F08804432C82AC891E
:101580004EF6F3100440B08831890843718908434E
:101590000443AC81AC8A4FF6FF400440B089044359
:1015A000AC8201A8FFF7FAFA1F48874202D1DDF8A2
:1015B00010A001E0DDF80CA0A88900F4004040B1C3
:1015C0000AEBCA0000EB0A1031684900B0FBF1F8E1
:1015D00007E00AEBCA0000EB0A1031688900B0FB93
:1015E000F1F86420B8FBF0F004012009642101FB4C
:1015F0001089A88900F4004040B1322000EBC900F6
:10160000B0FBF1F000F00700044308E0322000EBEB
:1016100009106421B0FBF1F000F00F0004432C81AD
:1016200006B0BDE8F0870000003801400146888818
:10163000C0F308007047C1F308028280704770B59C
:1016400004460D4629462046FFF7F5FF00BF8021DE
:101650002046FFF722FF0028F9D070BD70B506467E
:101660000C46002500BF615D3046FFF7E8FF681CAF
:1016700085B2605D0028F6D100BF40213046FFF7FB
:101680000CFF0028F9D070BD00BFFEE7490050EA0A
:10169000C12018BF04204A0D18BF40F0010040F2DD
:1016A000FF72B2EB515F08BF40F00200012808BF93
:1016B000052070472DE9F74F144694B00021C4E986
:1016C00002111599079121F00045C9498D4206DCA8
:1016D0001599C4E9000117B00020BDE8F08FC54995
:1016E000DFF814A3A9423CDD0799C44E0029C44F7A
:1016F000C44A1599534619DD01F08AFE554506D0B6
:10170000C14AC24B01F084FEC4E900010AE04FF077
:10171000D352BE4B01F07CFE32463B4601F078FED0
:10172000C4E9000117B00120BDE8F08F01F09EF878
:10173000554506D0B44AB54B01F098F8C4E900010C
:101740000AE04FF0D352B14B01F090F832463B46DD
:1017500001F08CF8C4E9000117B04FF0FF30BDE88C
:10176000F08FAB49A942159978DB21F000418346FF
:101770008846A84AA84B01F023FB0022A74B01F0A2
:1017800075F801F087FA099001F0B3FA06460F46A2
:101790009C4A534601F014FB43465A4601F046FD6D
:1017A00080468A46984A994B3046394601F008FBF4
:1017B0002A0D01250B924246534601F037FD032DB9
:1017C000C4E9000139D00B98C1F30A51401A05EB66
:1017D00045111139814230DA9148C346784400EB13
:1017E0000510CDF80CA00C90D0E900233046394606
:1017F00001F0E6FA02460B4604910690584603991A
:1018000001F006FE80468A4602460B46584603997A
:1018100001F0FEFD049B069A01F0FAFD83460C9848
:1018200003913946D0E90223304601F0C9FA5A46FD
:10183000039B01F0EDFD6D1CBDE707980028A2BFDA
:10184000099817B0BDE8F08F616881F000416160D0
:10185000099817B04042BDE8F08FFFE7844615981D
:10186000C1F31301C0F30A50A0F2F5304FEA60183B
:1018700000F01F06C6F1200013900020069007908C
:1018800041F4801E05206D4676B1664A08EB0001E2
:101890007A4452F8213002EB8101B3404A6813992F
:1018A00022FA01F1194305E05F4908EB000279448F
:1018B00051F82210A1FB0E27A1FB0C131A449A42E7
:1018C00034BF0123002303EB070A05EB8003D3E9B0
:1018D00001B70F448F4234BF0121002193448B4450
:1018E00011B1934502D903E0934501D2012100E0F3
:1018F0000021C3E901B7514445F82010011EA0F1B1
:101900000100C1DC0298059F00F10050800F129089
:101910000298DDE90356800001F0EBF98346284682
:101920000D9101F0FDF96FF01D0202F036FACDE9DC
:101930000E01304601F0F4F96FF03D0202F02DFA8D
:1019400080468A46384601F0EBF96FF05D0202F0FE
:1019500024FA074642465346119100F087FFDDE91D
:101960000E2300F083FF5A460D9B00F07FFF0025F9
:101970000E465A4628460D9B01F04AFDDDE90E232E
:1019800001F046FD4246534601F042FD3A46119BA6
:1019900001F04CFCDFF898A0244A534601F010FAFD
:1019A00007468846234A244B3146284601F008FA68
:1019B0003A46434600F05AFF074688464FF0A84291
:1019C00053463146284601F0FBF93A46434600F0BB
:1019D0004DFF159A12F0004F04D0129A81F0004189
:1019E00052421292C4E90001129817B0BDE8F08F7C
:1019F000FB21E93F7CD90240FB21F93F7370032EA4
:101A00008A19A33B000040543163621A61B4D03D8F
:101A1000FB21394183C8C96D305FE43F0000E03FDE
:101A200078260000F4250000D6250000182D445427
:101A3000FB21F93D3326A611460B113C2DE9FF4D44
:101A400021F0004807460C46B8F1795F08DA01F04A
:101A500021F9002801BF0020324904B0BDE8F08D13
:101A60003A4623461046194601F0AAF905460246B1
:101A70002D480E460B460621784400F05DF82A46B4
:101A8000334601F09DF9DDE9022382468B46384654
:101A9000214601F095F904460F4652465B4628461A
:101AA000314601F08DF922463B4601F0B1FC074674
:101AB0008A464FF0FF322846314602F06EF91B4A43
:101AC00090450ADA3A46534601F0A2FC04B00022DF
:101AD000BDE8F04D134B01F0A9BB154A4245A8BF24
:101AE000A8F500154FF00004B8BF124D22462B4652
:101AF00001F08EFC0646884622462B460020094906
:101B000001F086FC04460D463A46534630464146AF
:101B100001F07EFC04B022462B46BDE8F04D01F0FA
:101B200085BB00000000F03FAC2300003333D33FFF
:101B30000000E93F0000D23F2DE9F0414F1E00EBCD
:101B4000C7010446D1E9000115461E4637F00602DA
:101B50000DD02A46334601F033F97F1E04EBC7034C
:101B6000D3E9002300F082FE37F00602F1D1022F04
:101B700025D0042F13D0062F18BFBDE8F0812A46C8
:101B8000334601F01DF9D4E90A2300F06FFE2A461E
:101B9000334601F015F9D4E9082300F067FE2A4620
:101BA000334601F00DF9D4E9062300F05FFE2A4622
:101BB000334601F005F9D4E9042300F057FE2A4624
:101BC000334601F0FDF8D4E9022300F04FFE2A4627
:101BD000334601F0F5F8D4E90023BDE8F04100F008
:101BE00045BE00002DE9FF4D054621F0004084B0C0
:101BF0000C46B0F1795F0BDA2846FFF747FD042861
:101C000008BF00F06FF8284608B02146BDE8F08D07
:101C10002A460B46104601F0D3F806460F462A46E0
:101C2000234601F0CDF8804626488A4632463B4698
:101C300005217844FFF780FF83461098029160B336
:101C4000214A224B4046514601F0BAF8CDE9000145
:101C50005A4640465146029B01F0B2F882468846F9
:101C6000DDE906014FF0FF3202F097F85246434695
:101C700001F0CEFB32463B4601F0A2F8DDE9062337
:101C800001F0C6FBDDE9002301F0C2FB08B02A46E3
:101C90002346BDE8F04D01F0C9BA0B465A4630461E
:101CA000394601F08DF8084A084B00F0DFFD424646
:101CB000534601F085F808B02A462346BDE8F04DAA
:101CC00000F0D4BDEA220000495555555555C5BF11
:101CD000012202F062B8002213461046114600F0BD
:101CE00081BE0000024A0020110702F056B8000031
:101CF00001FDFFFF2DE9F04100F0EEF906460B492A
:101D000009680B4A126801FB02F001F037FE074632
:101D1000314601F093FE054606480168284601F069
:101D200095FF044600F008F8BDE8F0816800002047
:101D300064000020800000202DE9F0470646304670
:101D400001F050FC07460F4A0F4B00F0BDF8044667
:101D500000F05AFD81460021484601F03BFF03D8C0
:101D6000484601F03FFC07E0484601F03BFC0746CF
:101D7000044A054B00F07AFD044600F045FDBDE83D
:101D8000F0870000EA2E4454FB21194000BF704741
:101D900000B5244B21F0004287B09A42DCBF0022FC
:101DA000134629DD204B9A4208D140B94FF001007B
:101DB000FEF714FAFFF78FFF07B000BD03DBFFF754
:101DC00087FF07B000BD02AAFFF774FC10F0030103
:101DD00004BF0DF1080C9CE80F000DD00120012973
:101DE0000ED0022914D00DF1080C00909CE80F00D1
:101DF000FFF7F8FE07B000BDFFF720FE07B000BDFB
:101E00000DF1080C00909CE80F00FFF7EBFE05E0D9
:101E10000DF1080C9CE80F00FFF710FE07B081F0F1
:101E2000004100BDFB21E93F0000F07F10B56FF0DD
:101E30000400FFF795F80A4800680A49B0FBF1F082
:101E4000094908700846007800EB4001C1EBC0105A
:101E50004FF6FF7101EAC0000449088010BD000080
:101E60000000002000127A00280000202A00002034
:101E70000146114A12884A434FF0E0235A6100227A
:101E80009A611A46126942F001021A6100BF4FF0CE
:101E9000E022106900F001021AB100F48032002A39
:101EA000F5D04FF0E022126922F001024FF0E0235A
:101EB0001A6100229A6170472A00002000BF011EAB
:101EC000A0F10100FBD1704770B514461D460E46C7
:101ED000002814BF01210021314321F00041C1F14C
:101EE0007F6101F1E041C90F16D1002C14BF01211F
:101EF0000021294321F00041C1F17F6101F1E0415E
:101F0000C90F09D11449B1EB460F08BF00281CD0F6
:101F1000690008BF002C18D0314601F049F802468C
:101F200040F2FF7030EA11500DD0F017B0EBE17FB6
:101F300009D0084665F31E0084460B4620466146DC
:101F400001F074F90246104670BD0120FEF746F913
:101F5000BDE87040FFF7BFBE0000E0FF2DE9F05F75
:101F60004FF000094FF0E0208069314908600846D1
:101F7000006830490968884217D22E4909682C4AFE
:101F80001268881A01F012FD83462B4901F0C4FB48
:101F9000824601F027FB0746284A294B00F010FF34
:101FA000054600F031FC044619E0214909686FF04C
:101FB0007F42511A1F4A1268881801F0F7FC8346C5
:101FC0001D4901F0A9FB824601F00CFB07461B4AA4
:101FD0001B4B00F0F5FE054600F016FC0446002100
:101FE000204601F05BFC08D0204601F0FBFA0546D4
:101FF0000022144B01F08AF800D2134C00F02AF8AA
:1020000012490860124801681048006801F01EFE7D
:102010000546214601F080FB81460C4800680C49CA
:10202000086003480068034908604846BDE8F09F1F
:102030005C00002060000020000010418DEDB5A084
:10204000F7C6B03E0000E03F6F12833A5400002014
:10205000580000202DE9F04100F03EF804461A48EF
:102060000168204601F0F2FD0746384601F0BAFA51
:1020700021F0004105464FF00042144B01F046F8B4
:1020800013D20021384601F0A5FD02D24FF0FF30F7
:1020900000E00120064601F071FC05460C4801688D
:1020A000284601F0CBFA0A4908600748046009494C
:1020B0000748006801F0C2FC05460348016828464D
:1020C00001F0BCFABDE8F0814C0000202F1B144049
:1020D00048000020DB0FC9402DE9F047FEF7D0F89B
:1020E000824600F01DFE0646064A074B00F068FED9
:1020F0000446064A064B00F075FC804600F084FB5F
:10210000BDE8F0878E3BA583F57FB63F61376C5BFA
:1021100094A94C402DE9F041FFF720FF06460748FF
:10212000006801F02BFC0746314601F087FC0546AC
:10213000FEF786FB04462046BDE8F08168000020DB
:102140004FF4E13000F0D2FA4FF4E13000F012FB2E
:1021500017A11B48FFF782FA1A48FEF7B7F90121C9
:102160000720FEF77FF9FEF741FF1FE016480078D1
:10217000012806D0022809D003280CD0042814D145
:102180000EE012480068FEF737FE0EE00F480068C8
:10219000FEF774FE09E00D480068FEF769FD04E0F3
:1021A0000A480068FEF7E0F800BF00BFDEE7000065
:1021B00055534152542053656E64204F4B2100000B
:1021C0000044004000004041320000203400002064
:1021D0002DE9F04D07460E4600F0CEFF04460D46B1
:1021E0003A46334601F022F8DFF86CA0DFF86CB015
:1021F0001B4B0746884616F0004F4FF000020AD0EE
:1022000000F0A2FD0AD900225B463846414600F0A4
:102210007DFF1BD212E000F097FD08D2002253464A
:102220002046294601F0F4F804460D460EE000224F
:102230005B463846414600F069FF07D80022534606
:102240002046294600F012FB04460D463146204642
:1022500065F31E01BDE8F08D0000F03F0000E03F97
:102260000000E0BF2DE9F04106460C46154600216E
:10227000304601F0AFFB01D2002009E05B48016865
:10228000304601F0A7FC02D25848006800E0304612
:1022900006460021204601F09DFB01D2002009E006
:1022A00052480168204601F095FC02D24F48006870
:1022B00000E0204604460021284601F08BFB01D2B5
:1022C000002009E049480168284601F083FC02D259
:1022D0004648006800E02846054645480168304603
:1022E00001F01AFA0746002101F074FB01D2002028
:1022F00012E03F480168304601F00EFA07464FF001
:102300007E5101F067FC02D24FF07E5004E0384865
:102310000168304601F000FA364908603448016827
:10232000204601F0F9F90746002101F053FB01D2E4
:10233000002012E02E480168204601F0EDF9074622
:102340004FF07E5101F046FC02D24FF07E5004E087
:1023500027480168204601F0DFF927490860244832
:102360000168284601F0D8F90746002101F032FB48
:1023700001D2002012E01E480168284601F0CCF985
:1023800007464FF07E5101F025FC02D24FF07E50FF
:1023900004E017480168284601F0BEF917490860B3
:1023A00017491448006801F049FB804601F0C6FA5D
:1023B00087B23846FEF7B2FB11490F48006801F0BA
:1023C0003DFB804601F0BAFA87B23846FEF7B0FB13
:1023D0000B490A48006801F031FB804601F0AEFA73
:1023E00087B23846FEF7AEFBBDE8F08170000020F2
:1023F00074000020980000209C000020A000002015
:10240000000016452DE9F04F8BB082468B4675488B
:10241000006880F000454FF08041284601F07CF9CB
:102420000446514601F0D6FB09D26E48006880F0A0
:1024300000444FF08041204601F06EF912E04FF069
:1024400080416848006801F067F90446514601F090
:10245000C1FA06D24FF080416248006801F05CF991
:1024600000E0504682465846FFF766FC83465846D1
:1024700001F0B8F8804600F0C3F806460F468AF02F
:102480000048404601F0AEF832463B46CDE908012F
:1024900000F096FC044600F0B7F95349086058462E
:1024A00001F0A0F8CDE90801FFF772FC04460D46E3
:1024B000504601F097F8804622462B4600F080FCFB
:1024C000064600F0A1F9494908604FF080414548AF
:1024D000006801F021F9044643480168204601F0F4
:1024E000ADF8434908604FF080413E48006801F074
:1024F00013F9044601F076F8CDE906013A48006880
:1025000001F070F806460F463848006801F06AF896
:10251000CDE900010020374900F0C2F80446DDE9AA
:10252000002300F04DFC32463B46CDE9020100F0AD
:102530006FFF804600224FF0804300F053FACDE950
:102540000401DDE9062300F091F9CDE9080100F06E
:102550005BF9294908604FF080412248006801F08A
:10256000DBF8044601F03EF8804689461F480068C3
:1025700001F038F804460D4600201E4900F090F89E
:10258000064622462B4600F01BFCCDE90201164808
:10259000006880F00044204601F024F8CDE90001F5
:1025A000DDE9022300F034FF00224FF08043CDE943
:1025B000040100F017FA42464B46CDE9060100F04F
:1025C00055F9CDE9080100F01FF90C4908600846EB
:1025D00002680948016806480068FFF743FE0BB02F
:1025E000BDE8F08F740000208400002088000020E7
:1025F0008C00002000000840900000209400002083
:1026000000B5254B21F0004287B09A4203DC00223E
:10261000134600922BE0214B9A4208D140B94FF06B
:102620000100FDF7DBFDFFF756FB07B000BD03DB44
:10263000FFF74EFB07B000BD02AAFFF73BF810F012
:1026400003014FF001000DD0012914D002291AD046
:102650000DF1080C9CE80F00FFF7F0F907B081F0CE
:10266000004100BD0DF1080C00909CE80F00FFF741
:10267000B9FA07B000BD0DF1080C9CE80F00FFF798
:10268000DDF907B000BD0DF1080C00909CE80F00CB
:10269000FFF7A8FAE2E70000FB21E93F0000F07F26
:1026A0002DE9F04106460F4600F0CCFD041E0D4614
:1026B00018BF0120284320F00040C0F17F6000F1E6
:1026C000E040C00F0ED0301C18BF0120384320F06E
:1026D0000040C0F17F6000F1E040C00F04BF012066
:1026E000FDF77CFD20462946BDE8F08110B586B097
:1026F000044601210420FEF741FA01214804FEF7B7
:102700002DFA0420ADF8140018208DF817000320CE
:102710008DF8160005A91548FDF7E6FE0820ADF86E
:10272000140004208DF8170005A91048FDF7DCFE01
:1027300001940020ADF80800ADF80A00ADF80C00D7
:10274000ADF810000C20ADF80E0001A90848FEF706
:1027500001FF012240F225510548FEF7D5FE012177
:102760000348FEF78EFE06B010BD000000080140D1
:102770000044004010B586B0044601218804FEF7ED
:10278000EDF901210820FEF7F9F918208DF817005E
:102790004FF48060ADF8140003208DF8160005A9F1
:1027A0001748FDF7A1FE48208DF817004FF4006090
:1027B000ADF8140003208DF8160005A91048FDF7A8
:1027C00093FE01940020ADF810000C20ADF80E002F
:1027D0000020ADF80C00ADF80A00ADF8080001A922
:1027E0000848FEF7B7FE012240F225510548FEF7E2
:1027F0008BFE01210348FEF744FE06B010BD000029
:10280000000C01400048004021F00042A2F160525B
:10281000B2F5801F01F0004328BFD2F17F6C0BD9C5
:102820005FEA001C43EAC20242EB507018BF7047D7
:1028300028BF20F001007047B2F5801FBCBF1846CA
:1028400070474FEA410C1CF5001F02D2084601F008
:10285000BCB970B500F05EFB00000089FFF7F6BF61
:102860004FF00040A0F580007047000010B591EADD
:10287000030F48BF83F0004300F1D285841A71EB47
:10288000030C05D2121943EB0C03001B61EB0C0186
:10289000DFF824E14FEA1154A4EB135C1EEA430F66
:1028A00018BF9EEA445F73D023EA0E03DCF1200ECA
:1028B00021EA045143F4801332D322FA0CFE10EBC8
:1028C0000E0023FA0CFE41EB0E01CCF1200E03FAB0
:1028D0000EFE10EB0E0051F10001B1F5801FCCF19E
:1028E000200E32D201EB045112FA0EF2BDE8104074
:1028F00058BF7047401C38BF5FEA420218BF70479C
:10290000002814BF20F0010041F100014FEA41030B
:1029100013F5001F38BF7047A1F1C04100F0F0BBB4
:10292000012A43EB0302ACF1200CDCF11F0E32BF95
:102930004FF0000E23FA0CF310EB030041EB0451AF
:10294000B4EB115FD0D0A1EB045101F5801149081F
:102950005FEA300001EB04510ED350F1000038BFA4
:1029600012FA0EFE08D1BDE81040C9E7401C38BF7E
:102970005FEA4202CAD1C3E7BDE810404FEA410313
:1029800013F5001F38BF7047A1F1C04100F0B8BB7C
:102990009EEA445F08D011EA5E0FBDE8104004BF14
:1029A00001F0004100207047BDE8104070B500F014
:1029B000B1FA00BF64FBBE3E0000E0FF02494FF0E9
:1029C000000001F0B8B900BF0000F87F491058BFFF
:1029D000C1F140415B1058BFC3F140438B42EFF35C
:1029E000008070472DE9C04130B4DFF8A0C23CEA56
:1029F000111418BF3CEA131400F0EC8081EA0305BF
:102A00001CEA111444EAD57418BF1CEA131500F02F
:102A1000C780A4EB05044FF0004545EAC12145EA13
:102A2000C32341EA505143EA525304F17F7499425F
:102A300004F500344FEAC0204FEAC22208BF90429A
:102A400000F09C804FEA13650FF24016765D4FEA66
:102A5000134506FB05F7C7F1807706FB07F74FEA3A
:102A6000D737A7FB03687642C8F58038A7FB06CEA8
:102A700038BFA8F1010807FB08E64FF0000EA6FBDF
:102A8000028CE6FB03CEDCF1000CCEF1004E38BF29
:102A9000AEF1010EA6FB0C584FF000074FF00005F9
:102AA000E6FB0E87A1FB08C6A0FB07CE16EB0E06C1
:102AB00045F10005E1FB076515F1E04E7EBFA4F589
:102AC00080345FEA46066D4116F1800745F1000546
:102AD0004FEA17274FEA066647EA0567A6F1DE4682
:102AE000B6F1805F4FEA15251FD9384624F0010C56
:102AF00005EBC471BCF1FE6F01EB0C1102D8F0BC08
:102B0000BDE8008124425CBF01F5801E9EEAC47FBF
:102B100002D4F0BCBDE80081244238D4F0BCA1F15D
:102B2000C041BDE8004100F0EBBA4FEAD22242EAD0
:102B300043524FEAD323A7FB02864FEAD02040EA54
:102B4000415007FB03661EEA0E0F4FEAD12105FB39
:102B5000026658BFA6EB0056B6EB00564FEA520E7F
:102B60004EEAC37E18EB0E0E56EB530EBDD518EB96
:102B700002085E417F1C55F10005B6E74FF4801551
:102B80004FF000074FF000064FF00008ADE7F0BC33
:102B90004FF0000001F1C04101F00041BDE80081AB
:102BA00011EA0C1F0CEA131500D00CE013EA0C1FFD
:102BB00000F025804FF00000F0BC81EA030101F035
:102BC0000041BDE80081F0BCBDE8004181EA03019D
:102BD00000F096BAF0BCBDE8004170B500F09AF97B
:102BE000097EFC3E00F007B881EA03014FF00000C7
:102BF00001F00041704781EA030100F081BAF0BCA6
:102C0000BDE800414FF0000021497047FFFDFBF98E
:102C1000F7F5F4F2F0EEEDEBE9E8E6E4E3E1E0DE0F
:102C2000DDDBDAD8D7D5D4D3D1D0CFCDCCCBCAC881
:102C3000C7C6C5C4C2C1C0BFBEBDBCBBBAB9B8B7A8
:102C4000B6B5B4B3B2B1B0AFAEADACABAAA9A8A89B
:102C5000A7A6A5A4A3A3A2A1A09F9F9E9D9C9C9B69
:102C60009A99999897979695959493939291919014
:102C70008F8F8E8E8D8C8C8B8B8A898988888787A5
:102C80008685858484838382828181800000FF071A
:102C90000000F87F4FEA41034FEA5353A3F58063E6
:102CA000D3F11E03C8BFD3F1210C0CDD4FF000425D
:102CB00042EAC12242EA505232FA03FC8CEAE17C39
:102CC000ACEBE1707047102BC4BF0020704703F5D8
:102CD000787CBCF1FF3F04D06FF0004282EA210013
:102CE000704770B500F016F94992248000207047B3
:102CF000F2E710F0004248BF4042B0FA80F310FA09
:102D000003F10AD0C3F11D0303F580634FEA41507C
:102D100002EB035202EBD12170474FF000007047E5
:102D2000B0FA80F310FA03F10AD0C3F11D0303F5E2
:102D300080634FEA41504FEA035202EBD1217047C2
:102D40004FF000007047000051EA030C17D41CF547
:102D5000801F58BFBCF5801F00F10680994218BF44
:102D6000704708BF9042704707D711F5801F58BFC2
:102D700013F5801F19D499427047894270471CF59A
:102D8000801F08D5BCF5801FF7D58B4218BF704750
:102D900008BF824270474FF4001C1CEB410F38BF44
:102DA0001CEB430F01D28B42704770B500F0B2F8B4
:102DB000922449004FF000514FF08053FFF706BEB8
:102DC000DFF848C170B51CEA111E1EBF1CEA1315BE
:102DD0009EEA0C0F95EA0C0F00F06F8081EA030465
:102DE00023EA4C134EEAD47E21EA4C1141F48011BF
:102DF00043F48013AE44A1FB024CA0FB0365AEF18B
:102E00007F7E361955EB0C05A1FB034C4CF10003FA
:102E1000A0FB021C16EB0C06654153F100030942AE
:102E200018BF46F0010613F4007F0BD14FEA0331BF
:102E30004FEA0530340341EA155140EA16506FF06D
:102E400003020AE04FEAC3214FEAC520F40241EA37
:102E5000555140EA56506FF0020202EB2E4201EB50
:102E6000025585EACE710AD05FEA440C18BF24F0FF
:102E7000004450F1000041F1000120EAD47040F21A
:102E8000FE7C624500D270BDA84214BF4FF0804462
:102E90004FF04044002E08BF0024BEF1806FA8BF51
:102EA000A1F1C041BDE8704080F22A814FF00000DE
:102EB00001F1C04101F0004170479EEA0C0F0CEA9D
:102EC000131518BF95EA0C0F06D04FF0000081EAE9
:102ED000030E0EF0004170BD00F01CF88900013EA9
:102EE00000F007B800F009B84FEA430C5FEA5C5CF9
:102EF00008D081EA030100F003B94FEA410C5FEA10
:102F00005C5CF6D14FF00000014970470000FF07FC
:102F10000000F87F0EF1020E2EF0030E5EF8046B37
:102F2000364205D4012A43EB030515F5001F12D8DC
:102F3000012841EB010C1CF5001F0CD80ED14FEA03
:102F4000D17C15F5001F0CEB4C0C0CF1020C08BFEA
:102F50004CEBD37C04E04FF0080C01E04FEAD37C4B
:102F60000CEB4C0526FA05F606F00706B6F1040C44
:102F700006D20EEB860CBDE870404CF0010C6047A9
:102F8000DFE80CF0090B02024FF000414FF00000A7
:102F9000A1F5002170BD19461046012851EB01042E
:102FA00018BFD4F5001484BF002001F0004170BDAB
:102FB000DFF844C170B53CEA111418BF3CEA1315A0
:102FC00000F08F8011F1004F1CEA13150CEA111468
:102FD00068BF45F0050518BF11EA0C1F00F07980A5
:102FE0002E4621EA4C1123EA4C1341F4801143F49C
:102FF0008013A5F58035AC423DDD801A9941A4F5DA
:10300000803609D54042C1F1000134BFB1F1010160
:10301000B1F1000185F0010511F4F01F08D011F4A1
:10302000801FE8D1400041EB0101A4F58034F6E7B0
:1030300021F00041B1FA81F6202E04BFB0FA80FEE3
:103040000EF12006A6F10B06B6F1200EA4EB064405
:103050000CD2C6F1200E01FA06F120FA0EF641EA72
:103060000601CEF1200600FA06F003E000FA0EF1A8
:103070004FF00000BFE750EA410E23D04FEA244E44
:10308000BEEB254F0FDB994208BF904204D00AD314
:10309000520043EB0303B0E74FEA1646B6EB144F7A
:1030A00008BF85F00105B4F5803401EB041181EA15
:1030B000C57100DB70BD01F1C0414FF0000001F0AF
:1030C000004170BD4FEA45714FF0000001F0004132
:1030D00070BD1CEA131F09D04FF0000001F0004141
:1030E00070BDFFF717FF00BFEDFFFF3EBDE870406A
:1030F0004FF00000014970470000FF070000F87F13
:103100000808A0F500114FEA3101704753EA010C9D
:1031100017D41CF5801F58BFBCF5801F00F1068036
:103120008B4218BF704708BF8242704707D713F51C
:10313000801F58BF11F5801F19D48B4270479B42E6
:1031400070471CF5801F08D5BCF5801FF7D5994244
:1031500018BF704708BF904270474FF4001C1CEB2B
:10316000430F38BF1CEB410F01D2994270470FB497
:103170000CBC03BCFFF719BE5FEA410C5FEA5C5C64
:10318000ACF580635B1C39D4D3F1340240F3458045
:10319000B2F1200314DA4FF0010C0CFA02FCACF18E
:1031A00001030340B3EB5C0220EA030008BF10EA0E
:1031B0000C0F98BF704710EB0C0041F100017047F5
:1031C0000AD0C3F1200201FA02FC012821FA03F11E
:1031D00001FA03F14CF100004FF0010C0CFA03FC72
:1031E000ACF10103B0F1004F21EA030108BF11EA7D
:1031F0000C0F4FF0000088BF61447047B3F1FF3FF0
:1032000028BF50EAC12C01F000414FF0000084BFFC
:1032100041F07C5141F470017047B3F5806FB8BF45
:10322000704770B5FFF776FE40DBB6BE91EA030F3C
:1032300010B581F000413FF521AB83F0004300F071
:10324000EFB800002DE9F04101F5801CBCF5001F2E
:10325000C0F2C3804FEA115C21EA0C510CF1FD0C65
:1032600041F480115FEA5C0C0CF5C07C01D3400096
:1032700049413DA4890241EA905187028E0E0A0C11
:10328000A45D04FB04F602FB06F6C6F14046A4FB6F
:103290000662F60D46EA422606FB06F4A4FB01236D
:1032A0005242C3F1404338BF5B1EA6FB02420024DA
:1032B000E6FB0324D20B42EA4446A6FB0623A1FB0D
:1032C00002E2A3FB07E4A4184FF0000252F100024F
:1032D000E3FB01426442C2F1404E38BFAEF1010E41
:1032E000A6FB04234FF00002E6FB0E32A2FB0346CE
:1032F0004FF00004B61954F10004E2FB0264A1FB94
:1033000006E6A4FB07E816EB08064FF0000858F1A4
:103310000008E4FB01687642C8F1405838BFA8F1C4
:103320000108A2FB06E4A3FB08E52D194FF00004F9
:1033300054F10004E2FB0854A1FB05E6A7FB04E8F6
:1033400018EB06084FF0000656F10006E1FB048674
:1033500018F1200556F10006A809A8F11B08B109CB
:1033600008F03F08B8F10A0F40EA86601CD901EB6B
:103370000C51BDE8F08100BFFCF5EEE8E2DDD8D3EA
:10338000CFCBC7C3C0BDB9B6B4B1AEACA9A7A5A3D6
:10339000A19F9D9B9A9896959392908F8D8C8B89E7
:1033A0008887868584838281A0FB006800FB01F208
:1033B00008EB4208B8EB872807D5341858EB01040E
:1033C000D5D5401C51F10001D1E7341A78EB010446
:1033D000CDD4401E71F10001C9E75FEA4C0C5FEAF1
:1033E0009C5C0DD105D34FF0000001F00041BDE819
:1033F000F081BDE8F04170B5FFF78CFD6DDBFFBEDD
:10340000BDE8F0414FF00000004970470000F87F30
:1034100010B591EA030F48BF83F000433FF52EAA91
:10342000841A71EB030C07D212198CF0004C43EB99
:103430000C03001B61EB0C01DFF8A4E14FEA11540F
:10344000A4EB135C1EEA430F18BF9EEA445F00F032
:10345000B08023EA6E03524221EA0451C3EB6E03AB
:1034600038BF5B1EDCF1200E25D322FA0CFE10EBD8
:103470000E0043FA0CFE41EB0E01CCF1200E03FAD4
:103480000EFE10EB0E0051F10001CCF1200E29D4FC
:1034900012FA0EF201EB0451BDE8104058BF70471C
:1034A000401C1CBFB2F1004F704700280CBF491CE4
:1034B00020F00100704712EB020E43EB030218BF2D
:1034C0004FF0010E4EEA4202ACF1200CDCF11E0E70
:1034D00054D943FA0CFE10EB0E0051F1FF31CCF140
:1034E0001E0ED5D50EF1010E12FA0EFE404141EB33
:1034F000010101EB445C5FEA5C5C10D910EBDE700B
:1035000001EB045138BFBEF1004FBDE8104018BFB9
:10351000704700280CBF491C20F00100704730D2D2
:103520004FEAD42C11F5001124F400641BD0B1FA39
:1035300081F20B3AA41AA41ED2F12003914030FA72
:1035400003F31943904001EBCC71002C01EB0451C3
:10355000BDE81040A8BF704701F1C0414FF0000026
:1035600001F000417047B0FA80F310FA03F100D186
:1035700010BDE41A173C4805C90AE4E701EB045101
:1035800010BD491001EB0451BDE810404FEA300076
:1035900002E04FF0000170474A0008BF0042F8D037
:1035A000B2F5001F28BF704701F000414FF0000046
:1035B00070479EEA445F07D011EA5E0FBDE81040F5
:1035C00004BF002100207047BDE8104070B5FFF730
:1035D000A1FC00BF40DFF63E83F00041104670477B
:1035E0000000E0FF43004FEAD30C4FEA3C0C43409D
:1035F0001FBF40070CF1605113F0FE4F70471CF0E5
:10360000006F03D100200CF0004170470CF0004324
:1036100043EA507010B540EACC0000F090FA00BFC9
:10362000000000924FEA0001FFF76ABD4FF0004131
:103630004FF00000A1F500217047000090EA010F53
:1036400048BF81F0004100F10883421A3CBF801A54
:1036500089184FEAD0524FF07F4C1CEA410FA2EB81
:10366000D15318BF9CEA026F00F03B804FF0004C32
:103670004CEA00204CEA012121FA03FC10EB0C0C6F
:103680001ED202F1FF325FEA1C2040EBC25038BF6D
:1036900070471CF07F0F4FEA400C18BFBCF17F4F02
:1036A00038BF7047C3F12003994008BF20F00100E4
:1036B000BCF17F4F38BF7047A0F1C04000F085BA21
:1036C0004FEA3C00000A40EBC25028BF1CF0FF0F3D
:1036D0004FEA400CE6D018BFBCF17F4F38BF7047AF
:1036E000EAE79CEA026F05D010EA5C0F08BF00F021
:1036F0000040704710B500F022FA00BF64FBBE3EE8
:10370000401058BFC0F14040491058BFC1F140417E
:103710008142EFF3008070474FF47F0C1CEAD01217
:103720001EBF1CEAD11392EA0C0F93EA0C0F00F0B3
:10373000858090EA010F48BF42F4807240F4000C8B
:1037400041F400002CF07F4120F07F4000B5814221
:10375000A2EB03020FF2081CACEB504EC0F10000CC
:103760009EF800E04FEA4E0E00FB0EFC38BF490009
:103770004FEA2C1C02F5FA020CFB0EF34FEACE1EA8
:103780004FEA112C4FEAC1210EEB635E42EB22425D
:103790000EFB0CFC4FEA1C5300FB03114FEA112CEB
:1037A0004FEA01310EFB0CFC4FEADC4C00FB0C1124
:1037B000C14228BF09184CEB03335DF804EB10EB52
:1037C000410143EBC250B2F57C0F38BF704729D599
:1037D00012F0F00F1CBF00F1C04000F00040704735
:1037E000008182838485868788898B8C8D8E8F91DA
:1037F0009293959697999A9C9D9FA0A2A3A5A7A8FE
:10380000AAACAEB0B2B3B5B7B9BCBEC0C2C5C7C929
:10381000CCCED1D4D7D9DCDFE2E6E9ECF0F3F7FA8D
:10382000FE0000004FEA400C0CF1807CBCF17E4FA2
:1038300028BF7047B0F1C04000F0C7B990EA010F4F
:103840000CEAD11348BF42F48072624538BF634529
:1038500007D213F47F0F16D080EA010000F0004079
:10386000704710B500F06BF9097EFC3E00F005B81A
:1038700080EA010000F00040704780EA010000F09B
:10388000004000F0A2B912F47F0F04BF0248704755
:1038900080EA010000F099B90000C07F50EA010CF5
:1038A00000F113801CF5000F58BFBCF5000F01D4C8
:1038B0008842704707D710F5000F58BF11F5000F69
:1038C00015D488427047894270471CF5000F04D513
:1038D000BCF5000FF7D5814270474FF0807C1CEBA0
:1038E000400F38BF1CEB410F01D28142704710B529
:1038F00000F025F9922449004FF000504FF080511C
:10390000FFF7FEBE41000B0ED3F19E0208D950F422
:1039100000034FEA032323FA02F048BF40427047F6
:1039200010B500F00CF900BF4992248000207047C8
:103930006FF0004282EA200070470000C10DD1F113
:103940009E0206DB4FEA002343F0004323FA02F015
:103950007047004207D54FEA4001B1F1FE4F02D255
:103960004FF00000704710B500F0E9F8499224804C
:10397000002070476FEA20007047000010F00041FF
:1039800048BF4042B0FA80F310FA03F2C3F19D033E
:103990000BD051EAC35101EB1220530638BF7047D8
:1039A00000F1010008BF20F001007047B0FA80F379
:1039B00010FA03F2C3F19D030AD0D90501EB1220DE
:1039C000530638BF704700F1010008BF20F0010026
:1039D0007047000050EA010C00F113801CF5000F45
:1039E00058BFBCF5000F01D48842704707D710F5C7
:1039F000000F58BF11F5000F15D488427047894257
:103A000070471CF5000F04D5BCF5000FF7D58142B7
:103A100070474FF0807C1CEB400F38BF1CEB410F10
:103A200001D28142704710B500F089F89224490014
:103A30004FF000504FF08051FFF762BE4FF47F0C03
:103A40001CEAD0121EBF1CEAD11392EA0C0F93EAB3
:103A50000C0F00F0478090EA010F48BF42F48072DB
:103A60004FF0004C4CEA00204CEA012102EB03022B
:103A7000A0FB0113A2F50002002918BF43F00103C7
:103A80005B0028BF4FEA330342EB22425FEA132C6C
:103A90004CEBC2502EBFBCEB436FB2F57C0F7047AE
:103AA0004FEA036CBCF1004F08BF20F00100B2F5F3
:103AB0007C0F38BF70470BD582F0FF0212F5803FB4
:103AC000C8BF704700F1C040D8BF00F00040704749
:103AD00000F5000C5FEA4C0C48BF7047B0F1C040E5
:103AE00000F073B890EA010F0CEAD11348BF42F41A
:103AF0008072624538BF634504D280EA010000F05D
:103B00000040704710B500F01AF800BF8900013E70
:103B100000F007B800F009B85FEA410C5FEA1C6CDE
:103B200008D080EA010000F050B85FEA400C5FEA7C
:103B30001C6CF6D14FF00040A0F5800070470EF1EC
:103B4000020E2EF0030E5EF8044B244204D44FEA1A
:103B50004102B2F17F4F11D84FEA4003B3F17F4FDA
:103B60000CD80ED14FEAD07CB2F17F4F0CEB4C0C4D
:103B70000CF1020C08BF4CEBD17C04E04FF0080CB8
:103B800001E04FEAD17C0CEB4C0324FA03F404F07F
:103B90000704B4F1040C06D20EEB840CBDE810400F
:103BA0004CF0010C6047DFE80CF0070802024FF010
:103BB0000040A0F5800010BD0846420018BFD2F1B9
:103BC000807288BF00F0004010BDFF2141EAD05054
:103BD000C005704751EA000C00F113801CF5000F7E
:103BE00058BFBCF5000F01D48142704707D711F5CB
:103BF000000F58BF10F5000F15D48142704789425D
:103C000070471CF5000F04D5BCF5000FF7D58842AE
:103C100070474FF0807C1CEB410F38BF1CEB400F0E
:103C200001D28842704780EA010081EA000180EAFF
:103C30000100FFF7F8BE80F0004090EA010F7FF529
:103C400004AD81F0004100F008B8000090EA010FD7
:103C500048BF81F000413FF5F8AC421A04D882F029
:103C60000042A0EB020011444FEAD0524FF07F4CCB
:103C70001CEA410FA2EBD15318BF9CEA026F4AD055
:103C80004FF0004C4CEA00204CEA012121FA03FCE1
:103C9000B0EB0C0C0FD412F0FE0F36D05FEA4C00E4
:103CA0001DD5001240EBC25038BF70471CF03F0FCB
:103CB00018BF70470BE0A2F101025FEA1C2040EB45
:103CC000C25038BF70471CF07F0F18BF7047C3F158
:103CD0002003994014BF401E20F001007047800867
:103CE0004FEA122308BF7047B0FA80FCA2EB0C0227
:103CF000CCF1280C60FA0CF093EA122F04BF00EB11
:103D0000C25070474FEAC3707047130A5FEADC1075
:103D100008BF7047F6E79CEA026F04D010EA5C0F18
:103D200008BF0020704710B5FFF709FF40DFF63EDF
:103D300081F0004070470CF00F03092B08BF0820EA
:103D400000F059800A2B0BD0082B18BF704708BF12
:103D50001CF0400F0AD04FF000004FF000017047F8
:103D60001CF0400F18BF4FF0004070471CF0100FC0
:103D700008D020F0704300F07F4242EAD3014FEABE
:103D80004370704700F0604021F07F4242EA000239
:103D900001F07F4040EA727070474FF0FF0C4CF426
:103DA000E06C1CEA11531CBF9CEA030C9445C2BF93
:103DB000DA4201EB02517047002B0DD0BCF1000F2D
:103DC0000FD0002A01F00041A4BF41F0E04141F0D2
:103DD0007F614FF00000704701F000414FF000009C
:103DE000704750EA01334FF09B0C18BF4CF0806CC9
:103DF0007EF4E4AD70471CF4801F11D01CF4E02F5A
:103E000003D06FEACC31490070474FF04050EFF3D8
:103E1000008222F0704242EA000282F3008870477A
:103E20004FF00000704700004C5555555555A53FC3
:103E30007751C1166CC156BF9015CB19A001FA3E3F
:103E4000AD529C804F7E92BEC4B1B4BD9EEE213E69
:103E5000D43888BEE9FAA8BD00004054FB21F93FE0
:103E60003163621A61B4D03D0000601A61B4D03D84
:103E70007370032E8A19A33B0000002E8A19A33BFE
:103E8000C14920259A837B39000000000000000012
:103E90006E83F9A22915444ED15727FCC0DD34F5B5
:103EA000999562DB4190433CAB6351FE61C5BBDE3B
:103EB0003A6E24B7E0D24D42EA2E49061C92D1094F
:103EC0001CEB1DFE3EA729B1F53582E88444BB2ECC
:103ED00026709CE9417E5FB439D69139F439538319
:103EE0008B5F849C3B28F9BDFF97F81F0F9805DE78
:103EF0008B112FEF1F6D0A5ACF7E366DB709CB2776
:103F0000663F464F2DEA5F9EC7BA27757BF1E5EB0A
:103F1000F739073DEA92528AB15FFB6B085D8D1F4E
:103F2000A6F810111111813FD561C119A0012ABF56
:103F30007DFEB157E31DC73EEB9C2B8AE6E55ABEDA
:103F40007CD5CF5A3AD9E53D683F000800000020F3
:103F5000B00000002801000818400008B000002050
:103F6000A80600004401000800A24A040000000066
:103F70000000000001020304060708090000000019
:103F800001020304010203040607080902040608EB
:103F90000000000000000000000000000000000021
:103FA0000000000000000000000000000000000011
:103FB0000000000000000000000000000000000001
:103FC00000000000000000000000000007000000EA
:103FD00001000000000000000000404100004041DE
:103FE00000000000000000000000000000000000D1
:103FF00000000000000000000000000000000000C1
:1040000000000000000000000000000000000000B0
:084010000000000000000000A8
:04000005080000ED02
:00000001FF
